:030000000200FB00
:0C00FB00787FE4F6D8FD75813B020142DD
:10000300062C000000000000C100C102C101C103B1
:10001300013A000B21000000000000000000000076
:1001E700759850438E01438E0475D78F75D6FD439E
:0301F7008E102245
:1001FA00759A50438E0475D78F75D6FD438E10229B
:1001D3005392FB43910475DE0F75BC80D2ADD2AF51
:0401E30043BC4022B7
:080213008F993099FDC2992278
:0C01B3007FA51201BF7F451201BF7FEA4B
:1001BF008F9BD20030000CE59A30E1F8539AFDC2C4
:0401CF000080F12299
:10002E001201E71201FA1201B37E007F037D007BFD
:10003E00007A00792C120187D2AF3080FD43AF01D8
:10004E00C2AD3002FD30026EE4F5AF7FA51201BFE6
:10005E007F751201BF7F1A1201BFE4F532F53BE541
:10006E00242404FFE433FEC3E53B9FEE6480F87462
:10007E008098500E7421253BF8E62532F532053B6B
:10008E0080DDE532652B7029E525F52CE526F52D6D
:10009E00E527F52EE528F52FE529F530E52AF5318A
:1000AE00852533852634852735852836852937F5E8
:1000BE0038C2021201B31201D31201D3200103027E
:1000CE00004BE4F53AAF33120213AF34120213AF02
:1000DE0035120213AF36120213AF37120213AF38B6
:0D00EE00120213AF39120213C20102004BBF
:03002B0002020AC4
:09020A0053BCDF85BD39D201327D
:1001070002002EE493A3F8E493A34003F68001F2E0
:1001170008DFF48029E493A3F85407240CC8C333F9
:10012700C4540F4420C8834004F456800146F6DFC8
:10013700E4800B0102040810204080900003E47E55
:10014700019360BCA3FF543F30E509541FFEE493BD
:10015700A360010ECF54C025E060A840B8E493A384
:10016700FAE493A3F8E493A3C8C582C8CAC583CAAF
:10017700F0A3C8C582C8CAC583CADFE9DEE780BE67
:0100230000DC
:10018700EF4E6012EF60010EEDBB010B89828A838F
:10019700F0A3DFFCDEFA2289F05007F709DFFCA99C
:0C01A700F022BBFEFCF309DFFCA9F022F3
:00000001FF
