:03000000020113E7
:0C011300787FE4F6D8FD75813B02015AAC
:10000300062C000000000000C100C102C101C103B1
:10001300013A000B21000000000000000000000076
:10022000759850438E01438E0475D78F75D6FD4364
:030230008E10220B
:10023300759A50438E0475D78F75D6FD438E102261
:10002E005392FB43910475DE0F75BC80D2ADD2AFF7
:04003E0043BC40225D
:08024C008F993099FDC299223F
:0C0200007FA512020C7F4512020C7FEA61
:10020C008F9BD20030000CE59A30E1F8539AFDC276
:04021C000080F1224B
:100046001202201202331202007E007F037D007B23
:10005600007A00792C1201D4D2AF3080FD43AF0173
:10006600C2AD3002FD30026EE4F5AF7FA512020C80
:100076007F7512020C7F1A12020CE4F532F53BE58D
:10008600242404FFE433FEC3E53B9FEE6480F8744A
:100096008098500E7421253BF8E62532F532053B53
:1000A60080DDE532652B7029E525F52CE526F52D55
:1000B600E527F52EE528F52FE529F530E52AF53172
:1000C600852533852634852735852836852937F5D0
:1000D60038C20212020012002E12002E2001030264
:1000E6000063E4F53AAF3312024CAF3412024CAF60
:1000F6003512024CAF3612024CAF3712024CAF38F3
:0D01060012024CAF3912024CC2010200631C
:0300430002019F18
:10019F00C0E0C0D075D000C000E59A30E105539A99
:1001AF00FDC200E59A30E0167421253AF8A69B05AA
:1001BF003A539AFEE53A640B7004F53AD202D00036
:0501CF00D0D0D0E032A9
:03002B000202438B
:0902430053BCDF85BD39D2013244
:10011F00020046E493A3F8E493A34003F68001F2B0
:10012F0008DFF48029E493A3F85407240CC8C333E1
:10013F00C4540F4420C8834004F456800146F6DFB0
:10014F00E4800B0102040810204080900003E47E3D
:10015F00019360BCA3FF543F30E509541FFEE493A5
:10016F00A360010ECF54C025E060A840B8E493A36C
:10017F00FAE493A3F8E493A3C8C582C8CAC583CA97
:10018F00F0A3C8C582C8CAC583CADFE9DEE780BE4F
:0100230000DC
:1001D400EF4E6012EF60010EEDBB010B89828A8342
:1001E400F0A3DFFCDEFA2289F05007F709DFFCA94F
:0C01F400F022BBFEFCF309DFFCA9F022A6
:00000001FF
